:030000000208B142
:0C08B100787FE4F6D8FD75810A02087912
:0C08BD004C43440050524F4752414D0044
:100879001208567BFF7A0879BD7F387E0012082E50
:0F0889007BFF7A0879C17FC47E0012082E80E1C0
:100856007F387E001208C97F0C7E001208C97F0609
:100866007E001208C97F017E001208C97F807E00C3
:030876000208C9AC
:0A08C9008FA0C290120800C2922214
:0A08D3008FA0D290120800C29222FA
:10082E008B088A09890A1208C9AB08AA09A90A12F3
:10083E0008986013050AE50A7002050914F91208F2
:08084E0098FF1208D380E2229A
:08080000C291D2927F0A7E0032
:10080800E4FDFCD3ED9FEE6480F8EC64809850150D
:10081800E4FBFA0BBB00010ABA27F8BB11F50DBDC2
:0508280000010C80DE60
:01082D0022A8
:10089800BB010689828A83E0225002E722BBFE025E
:0908A800E32289828A83E4932291
:00000001FF
